{"abi":[{"type":"constructor","inputs":[],"stateMutability":"nonpayable"},{"type":"function","name":"createProduct","inputs":[{"name":"_name","type":"string","internalType":"string"},{"name":"_description","type":"string","internalType":"string"},{"name":"_price","type":"uint256","internalType":"uint256"}],"outputs":[],"stateMutability":"nonpayable"},{"type":"function","name":"distributor","inputs":[],"outputs":[{"name":"","type":"address","internalType":"address"}],"stateMutability":"view"},{"type":"function","name":"getProduct","inputs":[{"name":"_productId","type":"uint256","internalType":"uint256"}],"outputs":[{"name":"","type":"tuple","internalType":"struct SupplyChainManagement.Product","components":[{"name":"id","type":"uint256","internalType":"uint256"},{"name":"name","type":"string","internalType":"string"},{"name":"description","type":"string","internalType":"string"},{"name":"price","type":"uint256","internalType":"uint256"},{"name":"status","type":"uint8","internalType":"enum SupplyChainManagement.ProductStatus"},{"name":"createdAt","type":"uint256","internalType":"uint256"},{"name":"sentByManufacturerAt","type":"uint256","internalType":"uint256"},{"name":"receivedByDistributorAt","type":"uint256","internalType":"uint256"},{"name":"sentByDistributorAt","type":"uint256","internalType":"uint256"},{"name":"receivedByRetailerAt","type":"uint256","internalType":"uint256"}]}],"stateMutability":"view"},{"type":"function","name":"getProductCount","inputs":[],"outputs":[{"name":"","type":"uint256","internalType":"uint256"}],"stateMutability":"view"},{"type":"function","name":"getProductHistory","inputs":[{"name":"_productId","type":"uint256","internalType":"uint256"}],"outputs":[{"name":"","type":"uint256[]","internalType":"uint256[]"}],"stateMutability":"view"},{"type":"function","name":"getProductTransactions","inputs":[{"name":"_productId","type":"uint256","internalType":"uint256"}],"outputs":[{"name":"","type":"tuple[]","internalType":"struct SupplyChainManagement.Transaction[]","components":[{"name":"productId","type":"uint256","internalType":"uint256"},{"name":"transactionType","type":"string","internalType":"string"},{"name":"performer","type":"address","internalType":"address"},{"name":"timestamp","type":"uint256","internalType":"uint256"}]}],"stateMutability":"view"},{"type":"function","name":"getProductsByDateRange","inputs":[{"name":"_startDate","type":"uint256","internalType":"uint256"},{"name":"_endDate","type":"uint256","internalType":"uint256"}],"outputs":[{"name":"","type":"uint256[]","internalType":"uint256[]"}],"stateMutability":"view"},{"type":"function","name":"getProductsByStatus","inputs":[{"name":"_status","type":"uint8","internalType":"enum SupplyChainManagement.ProductStatus"}],"outputs":[{"name":"","type":"uint256[]","internalType":"uint256[]"}],"stateMutability":"view"},{"type":"function","name":"getProductsCreated","inputs":[],"outputs":[{"name":"","type":"tuple[]","internalType":"struct SupplyChainManagement.Product[]","components":[{"name":"id","type":"uint256","internalType":"uint256"},{"name":"name","type":"string","internalType":"string"},{"name":"description","type":"string","internalType":"string"},{"name":"price","type":"uint256","internalType":"uint256"},{"name":"status","type":"uint8","internalType":"enum SupplyChainManagement.ProductStatus"},{"name":"createdAt","type":"uint256","internalType":"uint256"},{"name":"sentByManufacturerAt","type":"uint256","internalType":"uint256"},{"name":"receivedByDistributorAt","type":"uint256","internalType":"uint256"},{"name":"sentByDistributorAt","type":"uint256","internalType":"uint256"},{"name":"receivedByRetailerAt","type":"uint256","internalType":"uint256"}]}],"stateMutability":"view"},{"type":"function","name":"getProductsReceivedByDistributor","inputs":[],"outputs":[{"name":"","type":"tuple[]","internalType":"struct SupplyChainManagement.Product[]","components":[{"name":"id","type":"uint256","internalType":"uint256"},{"name":"name","type":"string","internalType":"string"},{"name":"description","type":"string","internalType":"string"},{"name":"price","type":"uint256","internalType":"uint256"},{"name":"status","type":"uint8","internalType":"enum SupplyChainManagement.ProductStatus"},{"name":"createdAt","type":"uint256","internalType":"uint256"},{"name":"sentByManufacturerAt","type":"uint256","internalType":"uint256"},{"name":"receivedByDistributorAt","type":"uint256","internalType":"uint256"},{"name":"sentByDistributorAt","type":"uint256","internalType":"uint256"},{"name":"receivedByRetailerAt","type":"uint256","internalType":"uint256"}]}],"stateMutability":"view"},{"type":"function","name":"getProductsReceivedByRetailer","inputs":[],"outputs":[{"name":"","type":"tuple[]","internalType":"struct SupplyChainManagement.Product[]","components":[{"name":"id","type":"uint256","internalType":"uint256"},{"name":"name","type":"string","internalType":"string"},{"name":"description","type":"string","internalType":"string"},{"name":"price","type":"uint256","internalType":"uint256"},{"name":"status","type":"uint8","internalType":"enum SupplyChainManagement.ProductStatus"},{"name":"createdAt","type":"uint256","internalType":"uint256"},{"name":"sentByManufacturerAt","type":"uint256","internalType":"uint256"},{"name":"receivedByDistributorAt","type":"uint256","internalType":"uint256"},{"name":"sentByDistributorAt","type":"uint256","internalType":"uint256"},{"name":"receivedByRetailerAt","type":"uint256","internalType":"uint256"}]}],"stateMutability":"view"},{"type":"function","name":"getProductsSentByDistributor","inputs":[],"outputs":[{"name":"","type":"tuple[]","internalType":"struct SupplyChainManagement.Product[]","components":[{"name":"id","type":"uint256","internalType":"uint256"},{"name":"name","type":"string","internalType":"string"},{"name":"description","type":"string","internalType":"string"},{"name":"price","type":"uint256","internalType":"uint256"},{"name":"status","type":"uint8","internalType":"enum SupplyChainManagement.ProductStatus"},{"name":"createdAt","type":"uint256","internalType":"uint256"},{"name":"sentByManufacturerAt","type":"uint256","internalType":"uint256"},{"name":"receivedByDistributorAt","type":"uint256","internalType":"uint256"},{"name":"sentByDistributorAt","type":"uint256","internalType":"uint256"},{"name":"receivedByRetailerAt","type":"uint256","internalType":"uint256"}]}],"stateMutability":"view"},{"type":"function","name":"getProductsSentByManufacturer","inputs":[],"outputs":[{"name":"","type":"tuple[]","internalType":"struct SupplyChainManagement.Product[]","components":[{"name":"id","type":"uint256","internalType":"uint256"},{"name":"name","type":"string","internalType":"string"},{"name":"description","type":"string","internalType":"string"},{"name":"price","type":"uint256","internalType":"uint256"},{"name":"status","type":"uint8","internalType":"enum SupplyChainManagement.ProductStatus"},{"name":"createdAt","type":"uint256","internalType":"uint256"},{"name":"sentByManufacturerAt","type":"uint256","internalType":"uint256"},{"name":"receivedByDistributorAt","type":"uint256","internalType":"uint256"},{"name":"sentByDistributorAt","type":"uint256","internalType":"uint256"},{"name":"receivedByRetailerAt","type":"uint256","internalType":"uint256"}]}],"stateMutability":"view"},{"type":"function","name":"getUserProducts","inputs":[{"name":"_user","type":"address","internalType":"address"}],"outputs":[{"name":"","type":"uint256[]","internalType":"uint256[]"}],"stateMutability":"view"},{"type":"function","name":"manufacturer","inputs":[],"outputs":[{"name":"","type":"address","internalType":"address"}],"stateMutability":"view"},{"type":"function","name":"owner","inputs":[],"outputs":[{"name":"","type":"address","internalType":"address"}],"stateMutability":"view"},{"type":"function","name":"products","inputs":[{"name":"","type":"uint256","internalType":"uint256"}],"outputs":[{"name":"id","type":"uint256","internalType":"uint256"},{"name":"name","type":"string","internalType":"string"},{"name":"description","type":"string","internalType":"string"},{"name":"price","type":"uint256","internalType":"uint256"},{"name":"status","type":"uint8","internalType":"enum SupplyChainManagement.ProductStatus"},{"name":"createdAt","type":"uint256","internalType":"uint256"},{"name":"sentByManufacturerAt","type":"uint256","internalType":"uint256"},{"name":"receivedByDistributorAt","type":"uint256","internalType":"uint256"},{"name":"sentByDistributorAt","type":"uint256","internalType":"uint256"},{"name":"receivedByRetailerAt","type":"uint256","internalType":"uint256"}],"stateMutability":"view"},{"type":"function","name":"receiveProductByDistributor","inputs":[{"name":"_productId","type":"uint256","internalType":"uint256"}],"outputs":[],"stateMutability":"nonpayable"},{"type":"function","name":"receiveProductByRetailer","inputs":[{"name":"_productId","type":"uint256","internalType":"uint256"}],"outputs":[],"stateMutability":"nonpayable"},{"type":"function","name":"retailer","inputs":[],"outputs":[{"name":"","type":"address","internalType":"address"}],"stateMutability":"view"},{"type":"function","name":"sendProductByDistributor","inputs":[{"name":"_productId","type":"uint256","internalType":"uint256"}],"outputs":[],"stateMutability":"nonpayable"},{"type":"function","name":"sendProductByManufacturer","inputs":[{"name":"_productId","type":"uint256","internalType":"uint256"}],"outputs":[],"stateMutability":"nonpayable"},{"type":"function","name":"setAddresses","inputs":[{"name":"_manufacturer","type":"address","internalType":"address"},{"name":"_distributor","type":"address","internalType":"address"},{"name":"_retailer","type":"address","internalType":"address"}],"outputs":[],"stateMutability":"nonpayable"},{"type":"function","name":"transferOwnership","inputs":[{"name":"newOwner","type":"address","internalType":"address"}],"outputs":[],"stateMutability":"nonpayable"},{"type":"function","name":"updateProductDetails","inputs":[{"name":"_productId","type":"uint256","internalType":"uint256"},{"name":"_name","type":"string","internalType":"string"},{"name":"_description","type":"string","internalType":"string"},{"name":"_price","type":"uint256","internalType":"uint256"}],"outputs":[],"stateMutability":"nonpayable"},{"type":"event","name":"AddressesSet","inputs":[{"name":"manufacturer","type":"address","indexed":true,"internalType":"address"},{"name":"distributor","type":"address","indexed":true,"internalType":"address"},{"name":"retailer","type":"address","indexed":true,"internalType":"address"},{"name":"timestamp","type":"uint256","indexed":false,"internalType":"uint256"}],"anonymous":false},{"type":"event","name":"OwnershipTransferred","inputs":[{"name":"previousOwner","type":"address","indexed":true,"internalType":"address"},{"name":"newOwner","type":"address","indexed":true,"internalType":"address"}],"anonymous":false},{"type":"event","name":"ProductCreated","inputs":[{"name":"productId","type":"uint256","indexed":true,"internalType":"uint256"},{"name":"manufacturer","type":"address","indexed":true,"internalType":"address"},{"name":"timestamp","type":"uint256","indexed":false,"internalType":"uint256"}],"anonymous":false},{"type":"event","name":"ProductReceived","inputs":[{"name":"productId","type":"uint256","indexed":true,"internalType":"uint256"},{"name":"receiver","type":"address","indexed":true,"internalType":"address"},{"name":"timestamp","type":"uint256","indexed":false,"internalType":"uint256"}],"anonymous":false},{"type":"event","name":"ProductSent","inputs":[{"name":"productId","type":"uint256","indexed":true,"internalType":"uint256"},{"name":"from","type":"address","indexed":true,"internalType":"address"},{"name":"to","type":"address","indexed":true,"internalType":"address"},{"name":"timestamp","type":"uint256","indexed":false,"internalType":"uint256"}],"anonymous":false},{"type":"event","name":"ProductStageUpdated","inputs":[{"name":"productId","type":"uint256","indexed":true,"internalType":"uint256"},{"name":"currentStage","type":"uint8","indexed":false,"internalType":"enum SupplyChainManagement.ProductStatus"},{"name":"timestamp","type":"uint256","indexed":false,"internalType":"uint256"}],"anonymous":false},{"type":"event","name":"ProductStatusChanged","inputs":[{"name":"productId","type":"uint256","indexed":true,"internalType":"uint256"},{"name":"oldStatus","type":"uint8","indexed":false,"internalType":"enum SupplyChainManagement.ProductStatus"},{"name":"newStatus","type":"uint8","indexed":false,"internalType":"enum SupplyChainManagement.ProductStatus"},{"name":"timestamp","type":"uint256","indexed":false,"internalType":"uint256"}],"anonymous":false},{"type":"event","name":"ReturnProcessed","inputs":[{"name":"returnRequestId","type":"uint256","indexed":true,"internalType":"uint256"},{"name":"approved","type":"bool","indexed":false,"internalType":"bool"},{"name":"timestamp","type":"uint256","indexed":false,"internalType":"uint256"}],"anonymous":false},{"type":"event","name":"ReturnRequested","inputs":[{"name":"returnRequestId","type":"uint256","indexed":true,"internalType":"uint256"},{"name":"productId","type":"uint256","indexed":true,"internalType":"uint256"},{"name":"requester","type":"address","indexed":true,"internalType":"address"},{"name":"reason","type":"string","indexed":false,"internalType":"string"},{"name":"timestamp","type":"uint256","indexed":false,"internalType":"uint256"}],"anonymous":false},{"type":"event","name":"TransactionPerformed","inputs":[{"name":"productId","type":"uint256","indexed":true,"internalType":"uint256"},{"name":"transactionType","type":"string","indexed":false,"internalType":"string"},{"name":"performer","type":"address","indexed":true,"internalType":"address"},{"name":"timestamp","type":"uint256","indexed":false,"internalType":"uint256"}],"anonymous":false}],"bytecode":{"object":"0x6080604052348015600f57600080fd5b50600080546001600160a01b03191633178155600455612dcb806100346000396000f3fe608060405234801561001057600080fd5b50600436106101735760003560e01c80638da5cb5b116100de578063b3ebc84611610097578063cd8e144111610071578063cd8e144114610342578063f2fde38b1461034a578063f65182471461035d578063fee7f53b1461037057600080fd5b8063b3ebc84614610307578063b9db15b41461030f578063bfe109281461032f57600080fd5b80638da5cb5b1461029e5780638f46e741146102b157806390346fa3146102b95780639ab2dfa3146102c1578063a1422209146102e1578063aedd0376146102f457600080fd5b806357a096a11161013057806357a096a1146102145780635fc25e7f14610227578063716cd2081461023a578063747542821461024f5780637acc0b2014610262578063819be25c1461028b57600080fd5b80632f418f201461017857806333e3cde91461018d578063363bf964146101a05780634a348da9146101b35780634c1249fc146101c957806355af148f146101f4575b600080fd5b61018b6101863660046124c0565b610383565b005b61018b61019b3660046124c0565b6105a5565b61018b6101ae3660046124f5565b610772565b6004546040519081526020015b60405180910390f35b6003546101dc906001600160a01b031681565b6040516001600160a01b0390911681526020016101c0565b610207610202366004612538565b610886565b6040516101c0919061255a565b6102076102223660046124c0565b6109a5565b61018b6102353660046124c0565b610c7f565b610242610e69565b6040516101c091906126b5565b6001546101dc906001600160a01b031681565b6102756102703660046124c0565b611222565b6040516101c09a9998979695949392919061271a565b61018b6102993660046124c0565b611385565b6000546101dc906001600160a01b031681565b6102426115a2565b6102426115b3565b6102d46102cf3660046124c0565b6115bf565b6040516101c0919061278b565b61018b6102ef3660046128bd565b6116f0565b610207610302366004612930565b611a0c565b610242611a99565b61032261031d3660046124c0565b611aa5565b6040516101c09190612958565b6002546101dc906001600160a01b031681565b610242611c9f565b61018b61035836600461296b565b611cab565b61018b61036b366004612986565b611d86565b61020761037e36600461296b565b611f09565b6002546001600160a01b031633146103b65760405162461bcd60e51b81526004016103ad90612a00565b60405180910390fd5b806000811180156103c957506004548111155b6103e55760405162461bcd60e51b81526004016103ad90612a47565b60008281526006602052604090206002600482015460ff16600581111561040e5761040e6125e3565b1461042b5760405162461bcd60e51b81526004016103ad90612a73565b60048101805460ff19811660031790915542600883015560ff1661044f8482611f73565b61045a84600361205f565b61048f846040518060400160405280601381526020017229b2b73a10313c902234b9ba3934b13aba37b960691b8152506120af565b6003546040514281526001600160a01b0390911690339086907fe00db629464f6cf3dd882b093aa04e12f229901540817d714206c0749277b0c79060200160405180910390a460048201546040518591600080516020612d768339815191529161050291859160ff909116904290612ab6565b60405180910390a2604080518181526013918101919091527229b2b73a10313c902234b9ba3934b13aba37b960691b606082015242602082015233908590600080516020612d56833981519152906080015b60405180910390a3600482015460405185917f3d8bc1c5810cc03ca828bc428824690ee85c4ee20effb99ec20ca8f5bf030e3e916105979160ff16904290612adf565b60405180910390a250505050565b6001546001600160a01b031633146105cf5760405162461bcd60e51b81526004016103ad90612afa565b806000811180156105e257506004548111155b6105fe5760405162461bcd60e51b81526004016103ad90612a47565b600082815260066020526040812090600482015460ff166005811115610626576106266125e3565b146106435760405162461bcd60e51b81526004016103ad90612a73565b60048101805460ff19811660011790915542600683015560ff166106678482611f73565b61067284600161205f565b6106a8846040518060400160405280601481526020017329b2b73a10313c9026b0b73ab330b1ba3ab932b960611b8152506120af565b6002546040514281526001600160a01b0390911690339086907fe00db629464f6cf3dd882b093aa04e12f229901540817d714206c0749277b0c79060200160405180910390a460048201546040518591600080516020612d768339815191529161071b91859160ff909116904290612ab6565b60405180910390a2604080518181526014918101919091527329b2b73a10313c9026b0b73ab330b1ba3ab932b960611b606082015242602082015233908590600080516020612d5683398151915290608001610554565b6000546001600160a01b0316331461079c5760405162461bcd60e51b81526004016103ad90612b42565b6001600160a01b038316158015906107bc57506001600160a01b03821615155b80156107d057506001600160a01b03811615155b61080e5760405162461bcd60e51b815260206004820152600f60248201526e496e76616c6964206164647265737360881b60448201526064016103ad565b600180546001600160a01b03199081166001600160a01b03868116918217909355600280548316868516908117909155600380549093169385169384179092556040514281527f832717fbce4c924a984bd98e320800b3356e713ddccfa39ce9eebe4214efabb09060200160405180910390a4505050565b6060818311156108cd5760405162461bcd60e51b8152602060048201526012602482015271496e76616c696420646174652072616e676560701b60448201526064016103ad565b600060045467ffffffffffffffff8111156108ea576108ea612818565b604051908082528060200260200182016040528015610913578160200160208202803683370190505b509050600060015b600454811161099957600081815260066020526040902060050154861180159061095657506000818152600660205260409020600501548510155b15610987578083838151811061096e5761096e612b83565b60209081029190910101528161098381612baf565b9250505b8061099181612baf565b91505061091b565b50815290505b92915050565b6060816000811180156109ba57506004548111155b6109d65760405162461bcd60e51b81526004016103ad90612a47565b6000600660008581526020019081526020016000206040518061014001604052908160008201548152602001600182018054610a1190612bc8565b80601f0160208091040260200160405190810160405280929190818152602001828054610a3d90612bc8565b8015610a8a5780601f10610a5f57610100808354040283529160200191610a8a565b820191906000526020600020905b815481529060010190602001808311610a6d57829003601f168201915b50505050508152602001600282018054610aa390612bc8565b80601f0160208091040260200160405190810160405280929190818152602001828054610acf90612bc8565b8015610b1c5780601f10610af157610100808354040283529160200191610b1c565b820191906000526020600020905b815481529060010190602001808311610aff57829003601f168201915b505050918352505060038201546020820152600482015460409091019060ff166005811115610b4d57610b4d6125e3565b6005811115610b5e57610b5e6125e3565b815260058281015460208301526006830154604080840191909152600784015460608401526008840154608084015260099093015460a090920191909152815181815260c081019092529192506000918160200160208202803683370190505090508160a0015181600081518110610bd857610bd8612b83565b6020026020010181815250508160c0015181600181518110610bfc57610bfc612b83565b6020026020010181815250508160e0015181600281518110610c2057610c20612b83565b60200260200101818152505081610100015181600381518110610c4557610c45612b83565b60200260200101818152505081610120015181600481518110610c6a57610c6a612b83565b60209081029190910101529250505b50919050565b6002546001600160a01b03163314610ca95760405162461bcd60e51b81526004016103ad90612a00565b80600081118015610cbc57506004548111155b610cd85760405162461bcd60e51b81526004016103ad90612a47565b60008281526006602052604090206001600482015460ff166005811115610d0157610d016125e3565b14610d1e5760405162461bcd60e51b81526004016103ad90612a73565b60048101805460ff1981166002179091554260078084019190915533600090815260209182526040812080546001810182559082529190200184905560ff16610d678482611f73565b610d7284600261205f565b610dab84604051806040016040528060178152602001762932b1b2b4bb32b210313c902234b9ba3934b13aba37b960491b8152506120af565b604051428152339085907f15bbac4e671dd682bb8ba3a70a971537f9650428222e657dd6e706a9d3fcf0f29060200160405180910390a360048201546040518591600080516020612d7683398151915291610e0f91859160ff909116904290612ab6565b60405180910390a260408051818152601791810191909152762932b1b2b4bb32b210313c902234b9ba3934b13aba37b960491b606082015242602082015233908590600080516020612d5683398151915290608001610554565b60046000908152600860209081527f9321edea6e3be4df59a344b401fab4f888b556fda1f954244cff9204bad624b8805460408051828502810185019091528181526060949390929190830182828015610ee257602002820191906000526020600020905b815481526020019060010190808311610ece575b505050505090506000805b8251811015610f5b57600560066000858481518110610f0e57610f0e612b83565b60209081029190910181015182528101919091526040016000206004015460ff166005811115610f4057610f406125e3565b14610f535781610f4f81612baf565b9250505b600101610eed565b5060008167ffffffffffffffff811115610f7757610f77612818565b604051908082528060200260200182016040528015610fb057816020015b610f9d61245c565b815260200190600190039081610f955790505b5090506000805b845181101561121857600560066000878481518110610fd857610fd8612b83565b60209081029190910181015182528101919091526040016000206004015460ff16600581111561100a5761100a6125e3565b14611210576006600086838151811061102557611025612b83565b60200260200101518152602001908152602001600020604051806101400160405290816000820154815260200160018201805461106190612bc8565b80601f016020809104026020016040519081016040528092919081815260200182805461108d90612bc8565b80156110da5780601f106110af576101008083540402835291602001916110da565b820191906000526020600020905b8154815290600101906020018083116110bd57829003601f168201915b505050505081526020016002820180546110f390612bc8565b80601f016020809104026020016040519081016040528092919081815260200182805461111f90612bc8565b801561116c5780601f106111415761010080835404028352916020019161116c565b820191906000526020600020905b81548152906001019060200180831161114f57829003601f168201915b505050918352505060038201546020820152600482015460409091019060ff16600581111561119d5761119d6125e3565b60058111156111ae576111ae6125e3565b8152602001600582015481526020016006820154815260200160078201548152602001600882015481526020016009820154815250508383815181106111f6576111f6612b83565b6020026020010181905250818061120c90612baf565b9250505b600101610fb7565b5090949350505050565b6006602052600090815260409020805460018201805491929161124490612bc8565b80601f016020809104026020016040519081016040528092919081815260200182805461127090612bc8565b80156112bd5780601f10611292576101008083540402835291602001916112bd565b820191906000526020600020905b8154815290600101906020018083116112a057829003601f168201915b5050505050908060020180546112d290612bc8565b80601f01602080910402602001604051908101604052809291908181526020018280546112fe90612bc8565b801561134b5780601f106113205761010080835404028352916020019161134b565b820191906000526020600020905b81548152906001019060200180831161132e57829003601f168201915b505050506003830154600484015460058501546006860154600787015460088801546009909801549697949660ff9094169550919390928a565b6003546001600160a01b031633146113eb5760405162461bcd60e51b8152602060048201526024808201527f4f6e6c792072657461696c65722063616e2063616c6c20746869732066756e636044820152633a34b7b760e11b60648201526084016103ad565b806000811180156113fe57506004548111155b61141a5760405162461bcd60e51b81526004016103ad90612a47565b60008281526006602052604090206003600482015460ff166005811115611443576114436125e3565b146114605760405162461bcd60e51b81526004016103ad90612a73565b6004818101805460ff19811690921790554260098301553360009081526007602090815260408220805460018101825590835291200184905560ff166114a68482611f73565b6114b184600461205f565b6114e784604051806040016040528060148152602001732932b1b2b4bb32b210313c902932ba30b4b632b960611b8152506120af565b604051428152339085907f15bbac4e671dd682bb8ba3a70a971537f9650428222e657dd6e706a9d3fcf0f29060200160405180910390a360048201546040518591600080516020612d768339815191529161154b91859160ff909116904290612ab6565b60405180910390a260408051818152601491810191909152732932b1b2b4bb32b210313c902932ba30b4b632b960611b606082015242602082015233908590600080516020612d5683398151915290608001610554565b60606115ae600161216c565b905090565b60606115ae600261216c565b606060096000838152602001908152602001600020805480602002602001604051908101604052809291908181526020016000905b828210156116e557838290600052602060002090600402016040518060800160405290816000820154815260200160018201805461163190612bc8565b80601f016020809104026020016040519081016040528092919081815260200182805461165d90612bc8565b80156116aa5780601f1061167f576101008083540402835291602001916116aa565b820191906000526020600020905b81548152906001019060200180831161168d57829003601f168201915b505050918352505060028201546001600160a01b031660208083019190915260039092015460409091015290825260019290920191016115f4565b505050509050919050565b6001546001600160a01b0316331461171a5760405162461bcd60e51b81526004016103ad90612afa565b60008351116117625760405162461bcd60e51b81526020600482015260146024820152734e616d652063616e6e6f7420626520656d70747960601b60448201526064016103ad565b600081116117b25760405162461bcd60e51b815260206004820152601f60248201527f5072696365206d7573742062652067726561746572207468616e207a65726f0060448201526064016103ad565b600480549060006117c283612baf565b909155505060045460408051610140810182528281526020808201878152828401879052606083018690526000608084018190524260a085015260c0840181905260e0840181905261010084018190526101208401819052858152600690925292902081518155915190918291600182019061183e9082612c4b565b50604082015160028201906118539082612c4b565b5060608201516003820155608082015160048201805460ff19166001836005811115611881576118816125e3565b021790555060a0820151600582015560c0820151600682015560e082015160078083019190915561010083015160088301556101209092015160099091015533600090815260209182526040812080546001810182559082529181209091018390556118ee90839061205f565b61191f826040518060400160405280600f81526020016e141c9bd91d58dd0810dc99585d1959608a1b8152506120af565b604051428152339083907f8c12a1cab846dfcbaa7bbfb31067eef6959a29d7729252d0489ba1b9f631abc49060200160405180910390a381600080516020612d768339815191526000804260405161197993929190612ab6565b60405180910390a260408051818152600f818301526e141c9bd91d58dd0810dc99585d1959608a1b6060820152426020820152905133918491600080516020612d568339815191529181900360800190a3817f3d8bc1c5810cc03ca828bc428824690ee85c4ee20effb99ec20ca8f5bf030e3e6000426040516119fd929190612adf565b60405180910390a25050505050565b606060086000836005811115611a2457611a246125e3565b6005811115611a3557611a356125e3565b8152602001908152602001600020805480602002602001604051908101604052809291908181526020018280548015611a8d57602002820191906000526020600020905b815481526020019060010190808311611a79575b50505050509050919050565b60606115ae600061216c565b611aad61245c565b81600081118015611ac057506004548111155b611adc5760405162461bcd60e51b81526004016103ad90612a47565b600660008481526020019081526020016000206040518061014001604052908160008201548152602001600182018054611b1590612bc8565b80601f0160208091040260200160405190810160405280929190818152602001828054611b4190612bc8565b8015611b8e5780601f10611b6357610100808354040283529160200191611b8e565b820191906000526020600020905b815481529060010190602001808311611b7157829003601f168201915b50505050508152602001600282018054611ba790612bc8565b80601f0160208091040260200160405190810160405280929190818152602001828054611bd390612bc8565b8015611c205780601f10611bf557610100808354040283529160200191611c20565b820191906000526020600020905b815481529060010190602001808311611c0357829003601f168201915b505050918352505060038201546020820152600482015460409091019060ff166005811115611c5157611c516125e3565b6005811115611c6257611c626125e3565b81526005820154602082015260068201546040820152600782015460608201526008820154608082015260099091015460a0909101529392505050565b60606115ae600361216c565b6000546001600160a01b03163314611cd55760405162461bcd60e51b81526004016103ad90612b42565b6001600160a01b038116611d2b5760405162461bcd60e51b815260206004820152601d60248201527f4e6577206f776e657220697320746865207a65726f206164647265737300000060448201526064016103ad565b600080546040516001600160a01b03808516939216917f8be0079c531659141344cd1fd0a4f28419497f9722a3daafe3b4186f6b6457e091a3600080546001600160a01b0319166001600160a01b0392909216919091179055565b6000546001600160a01b03163314611db05760405162461bcd60e51b81526004016103ad90612b42565b83600081118015611dc357506004548111155b611ddf5760405162461bcd60e51b81526004016103ad90612a47565b6000845111611e275760405162461bcd60e51b81526020600482015260146024820152734e616d652063616e6e6f7420626520656d70747960601b60448201526064016103ad565b60008211611e775760405162461bcd60e51b815260206004820152601f60248201527f5072696365206d7573742062652067726561746572207468616e207a65726f0060448201526064016103ad565b600085815260066020526040902060018101611e938682612c4b565b5060028101611ea28582612c4b565b5060038101839055604080518181526017818301527f50726f647563742044657461696c7320557064617465640000000000000000006060820152426020820152905133918891600080516020612d568339815191529181900360800190a3505050505050565b6001600160a01b038116600090815260076020908152604091829020805483518184028101840190945280845260609392830182828015611a8d5760200282019190600052602060002090815481526020019060010190808311611a795750505050509050919050565b600060086000836005811115611f8b57611f8b6125e3565b6005811115611f9c57611f9c6125e3565b8152602001908152602001600020905060005b81548110156120595783828281548110611fcb57611fcb612b83565b9060005260206000200154036120515781548290611feb90600190612d0a565b81548110611ffb57611ffb612b83565b906000526020600020015482828154811061201857612018612b83565b90600052602060002001819055508180548061203657612036612d1d565b60019003818190600052602060002001600090559055612059565b600101611faf565b50505050565b60086000826005811115612075576120756125e3565b6005811115612086576120866125e3565b815260208082019290925260400160009081208054600181018255908252919020019190915550565b60408051608081018252838152602080820184815233838501524260608401526000868152600983529384208054600181810183559186529290942083516004909302019182555191928392908201906121099082612c4b565b506040828101516002830180546001600160a01b0319166001600160a01b039092169190911790556060909201516003909101555133908490600080516020612d568339815191529061215f9086904290612d33565b60405180910390a3505050565b6060600060086000846005811115612186576121866125e3565b6005811115612197576121976125e3565b81526020019081526020016000208054806020026020016040519081016040528092919081815260200182805480156121ef57602002820191906000526020600020905b8154815260200190600101908083116121db575b505050505090506000815167ffffffffffffffff81111561221257612212612818565b60405190808252806020026020018201604052801561224b57816020015b61223861245c565b8152602001906001900390816122305790505b50905060005b8251811015612454576006600084838151811061227057612270612b83565b6020026020010151815260200190815260200160002060405180610140016040529081600082015481526020016001820180546122ac90612bc8565b80601f01602080910402602001604051908101604052809291908181526020018280546122d890612bc8565b80156123255780601f106122fa57610100808354040283529160200191612325565b820191906000526020600020905b81548152906001019060200180831161230857829003601f168201915b5050505050815260200160028201805461233e90612bc8565b80601f016020809104026020016040519081016040528092919081815260200182805461236a90612bc8565b80156123b75780601f1061238c576101008083540402835291602001916123b7565b820191906000526020600020905b81548152906001019060200180831161239a57829003601f168201915b505050918352505060038201546020820152600482015460409091019060ff1660058111156123e8576123e86125e3565b60058111156123f9576123f96125e3565b81526020016005820154815260200160068201548152602001600782015481526020016008820154815260200160098201548152505082828151811061244157612441612b83565b6020908102919091010152600101612251565b509392505050565b6040518061014001604052806000815260200160608152602001606081526020016000815260200160006005811115612497576124976125e3565b815260200160008152602001600081526020016000815260200160008152602001600081525090565b6000602082840312156124d257600080fd5b5035919050565b80356001600160a01b03811681146124f057600080fd5b919050565b60008060006060848603121561250a57600080fd5b612513846124d9565b9250612521602085016124d9565b915061252f604085016124d9565b90509250925092565b6000806040838503121561254b57600080fd5b50508035926020909101359150565b602080825282518282018190526000918401906040840190835b81811015612592578351835260209384019390920191600101612574565b509095945050505050565b6000815180845260005b818110156125c3576020818501810151868301820152016125a7565b506000602082860101526020601f19601f83011685010191505092915050565b634e487b7160e01b600052602160045260246000fd5b6006811061261757634e487b7160e01b600052602160045260246000fd5b9052565b8051825260006020820151610140602085015261263c61014085018261259d565b905060408301518482036040860152612655828261259d565b91505060608301516060850152608083015161267460808601826125f9565b5060a083015160a085015260c083015160c085015260e083015160e08501526101008301516101008501526101208301516101208501528091505092915050565b6000602082016020835280845180835260408501915060408160051b86010192506020860160005b8281101561270e57603f198786030184526126f985835161261b565b945060209384019391909101906001016126dd565b50929695505050505050565b8a81526101406020820152600061273561014083018c61259d565b8281036040840152612747818c61259d565b91505088606083015261275d60808301896125f9565b60a082019690965260c081019490945260e08401929092526101008301526101209091015295945050505050565b6000602082016020835280845180835260408501915060408160051b86010192506020860160005b8281101561270e57603f198786030184528151805186526020810151608060208801526127e3608088018261259d565b6040838101516001600160a01b03169089015260609283015192909701919091525060209384019391909101906001016127b3565b634e487b7160e01b600052604160045260246000fd5b600082601f83011261283f57600080fd5b813567ffffffffffffffff81111561285957612859612818565b604051601f8201601f19908116603f0116810167ffffffffffffffff8111828210171561288857612888612818565b6040528181528382016020018510156128a057600080fd5b816020850160208301376000918101602001919091529392505050565b6000806000606084860312156128d257600080fd5b833567ffffffffffffffff8111156128e957600080fd5b6128f58682870161282e565b935050602084013567ffffffffffffffff81111561291257600080fd5b61291e8682870161282e565b93969395505050506040919091013590565b60006020828403121561294257600080fd5b81356006811061295157600080fd5b9392505050565b602081526000612951602083018461261b565b60006020828403121561297d57600080fd5b612951826124d9565b6000806000806080858703121561299c57600080fd5b84359350602085013567ffffffffffffffff8111156129ba57600080fd5b6129c68782880161282e565b935050604085013567ffffffffffffffff8111156129e357600080fd5b6129ef8782880161282e565b949793965093946060013593505050565b60208082526027908201527f4f6e6c79206469737472696275746f722063616e2063616c6c207468697320666040820152663ab731ba34b7b760c91b606082015260800190565b602080825260129082015271125b9d985b1a59081c1c9bd91d58dd08125160721b604082015260600190565b60208082526023908201527f50726f64756374206973206e6f7420696e2074686520636f727265637420737460408201526261746560e81b606082015260800190565b60608101612ac482866125f9565b612ad160208301856125f9565b826040830152949350505050565b60408101612aed82856125f9565b8260208301529392505050565b60208082526028908201527f4f6e6c79206d616e7566616374757265722063616e2063616c6c207468697320604082015267333ab731ba34b7b760c11b606082015260800190565b60208082526021908201527f4f6e6c79206f776e65722063616e2063616c6c20746869732066756e6374696f6040820152603760f91b606082015260800190565b634e487b7160e01b600052603260045260246000fd5b634e487b7160e01b600052601160045260246000fd5b600060018201612bc157612bc1612b99565b5060010190565b600181811c90821680612bdc57607f821691505b602082108103610c7957634e487b7160e01b600052602260045260246000fd5b601f821115612c4657806000526020600020601f840160051c81016020851015612c235750805b601f840160051c820191505b81811015612c435760008155600101612c2f565b50505b505050565b815167ffffffffffffffff811115612c6557612c65612818565b612c7981612c738454612bc8565b84612bfc565b6020601f821160018114612cad5760008315612c955750848201515b600019600385901b1c1916600184901b178455612c43565b600084815260208120601f198516915b82811015612cdd5787850151825560209485019460019092019101612cbd565b5084821015612cfb5786840151600019600387901b60f8161c191681555b50505050600190811b01905550565b8181038181111561099f5761099f612b99565b634e487b7160e01b600052603160045260246000fd5b604081526000612d46604083018561259d565b9050826020830152939250505056fe8d751b3cf7591bcfcae82f8951f186973d2559106e0f6d08e19dcde10c46f70ac77ff247e81f0dc4eb662088d49c8eb5c3156b5214a2116c9d6bfffe0c9ce878a26469706673582212201becda9248fd2567159b2d43844cad99f38b83835402f6ef90b173b70f87210a64736f6c634300081a0033","linkReferences":{}},"methodIdentifiers":{"createProduct(string,string,uint256)":"a1422209","distributor()":"bfe10928","getProduct(uint256)":"b9db15b4","getProductCount()":"4a348da9","getProductHistory(uint256)":"57a096a1","getProductTransactions(uint256)":"9ab2dfa3","getProductsByDateRange(uint256,uint256)":"55af148f","getProductsByStatus(uint8)":"aedd0376","getProductsCreated()":"b3ebc846","getProductsReceivedByDistributor()":"90346fa3","getProductsReceivedByRetailer()":"716cd208","getProductsSentByDistributor()":"cd8e1441","getProductsSentByManufacturer()":"8f46e741","getUserProducts(address)":"fee7f53b","manufacturer()":"74754282","owner()":"8da5cb5b","products(uint256)":"7acc0b20","receiveProductByDistributor(uint256)":"5fc25e7f","receiveProductByRetailer(uint256)":"819be25c","retailer()":"4c1249fc","sendProductByDistributor(uint256)":"2f418f20","sendProductByManufacturer(uint256)":"33e3cde9","setAddresses(address,address,address)":"363bf964","transferOwnership(address)":"f2fde38b","updateProductDetails(uint256,string,string,uint256)":"f6518247"},"id":20}