{"abi":[{"type":"constructor","inputs":[],"stateMutability":"nonpayable"},{"type":"function","name":"createProduct","inputs":[{"name":"_name","type":"string","internalType":"string"},{"name":"_description","type":"string","internalType":"string"},{"name":"_price","type":"uint256","internalType":"uint256"}],"outputs":[],"stateMutability":"nonpayable"},{"type":"function","name":"distributor","inputs":[],"outputs":[{"name":"","type":"address","internalType":"address"}],"stateMutability":"view"},{"type":"function","name":"getPendingReturnRequests","inputs":[],"outputs":[{"name":"","type":"tuple[]","internalType":"struct SupplyChainManagement.ReturnRequest[]","components":[{"name":"id","type":"uint256","internalType":"uint256"},{"name":"productId","type":"uint256","internalType":"uint256"},{"name":"requester","type":"address","internalType":"address"},{"name":"reason","type":"string","internalType":"string"},{"name":"approved","type":"bool","internalType":"bool"},{"name":"processed","type":"bool","internalType":"bool"},{"name":"timestamp","type":"uint256","internalType":"uint256"}]}],"stateMutability":"view"},{"type":"function","name":"getProduct","inputs":[{"name":"_productId","type":"uint256","internalType":"uint256"}],"outputs":[{"name":"","type":"tuple","internalType":"struct SupplyChainManagement.Product","components":[{"name":"id","type":"uint256","internalType":"uint256"},{"name":"name","type":"string","internalType":"string"},{"name":"description","type":"string","internalType":"string"},{"name":"price","type":"uint256","internalType":"uint256"},{"name":"status","type":"uint8","internalType":"enum SupplyChainManagement.ProductStatus"},{"name":"createdAt","type":"uint256","internalType":"uint256"},{"name":"sentByManufacturerAt","type":"uint256","internalType":"uint256"},{"name":"receivedByDistributorAt","type":"uint256","internalType":"uint256"},{"name":"sentByDistributorAt","type":"uint256","internalType":"uint256"},{"name":"receivedByRetailerAt","type":"uint256","internalType":"uint256"}]}],"stateMutability":"view"},{"type":"function","name":"getProductCount","inputs":[],"outputs":[{"name":"","type":"uint256","internalType":"uint256"}],"stateMutability":"view"},{"type":"function","name":"getProductHistory","inputs":[{"name":"_productId","type":"uint256","internalType":"uint256"}],"outputs":[{"name":"","type":"uint256[]","internalType":"uint256[]"}],"stateMutability":"view"},{"type":"function","name":"getProductTransactions","inputs":[{"name":"_productId","type":"uint256","internalType":"uint256"}],"outputs":[{"name":"","type":"tuple[]","internalType":"struct SupplyChainManagement.Transaction[]","components":[{"name":"productId","type":"uint256","internalType":"uint256"},{"name":"transactionType","type":"string","internalType":"string"},{"name":"performer","type":"address","internalType":"address"},{"name":"timestamp","type":"uint256","internalType":"uint256"}]}],"stateMutability":"view"},{"type":"function","name":"getProductsByDateRange","inputs":[{"name":"_startDate","type":"uint256","internalType":"uint256"},{"name":"_endDate","type":"uint256","internalType":"uint256"}],"outputs":[{"name":"","type":"uint256[]","internalType":"uint256[]"}],"stateMutability":"view"},{"type":"function","name":"getProductsByStatus","inputs":[{"name":"_status","type":"uint8","internalType":"enum SupplyChainManagement.ProductStatus"}],"outputs":[{"name":"","type":"uint256[]","internalType":"uint256[]"}],"stateMutability":"view"},{"type":"function","name":"getProductsCreated","inputs":[],"outputs":[{"name":"","type":"tuple[]","internalType":"struct SupplyChainManagement.Product[]","components":[{"name":"id","type":"uint256","internalType":"uint256"},{"name":"name","type":"string","internalType":"string"},{"name":"description","type":"string","internalType":"string"},{"name":"price","type":"uint256","internalType":"uint256"},{"name":"status","type":"uint8","internalType":"enum SupplyChainManagement.ProductStatus"},{"name":"createdAt","type":"uint256","internalType":"uint256"},{"name":"sentByManufacturerAt","type":"uint256","internalType":"uint256"},{"name":"receivedByDistributorAt","type":"uint256","internalType":"uint256"},{"name":"sentByDistributorAt","type":"uint256","internalType":"uint256"},{"name":"receivedByRetailerAt","type":"uint256","internalType":"uint256"}]}],"stateMutability":"view"},{"type":"function","name":"getProductsReceivedByDistributor","inputs":[],"outputs":[{"name":"","type":"tuple[]","internalType":"struct SupplyChainManagement.Product[]","components":[{"name":"id","type":"uint256","internalType":"uint256"},{"name":"name","type":"string","internalType":"string"},{"name":"description","type":"string","internalType":"string"},{"name":"price","type":"uint256","internalType":"uint256"},{"name":"status","type":"uint8","internalType":"enum SupplyChainManagement.ProductStatus"},{"name":"createdAt","type":"uint256","internalType":"uint256"},{"name":"sentByManufacturerAt","type":"uint256","internalType":"uint256"},{"name":"receivedByDistributorAt","type":"uint256","internalType":"uint256"},{"name":"sentByDistributorAt","type":"uint256","internalType":"uint256"},{"name":"receivedByRetailerAt","type":"uint256","internalType":"uint256"}]}],"stateMutability":"view"},{"type":"function","name":"getProductsReceivedByRetailer","inputs":[],"outputs":[{"name":"","type":"tuple[]","internalType":"struct SupplyChainManagement.Product[]","components":[{"name":"id","type":"uint256","internalType":"uint256"},{"name":"name","type":"string","internalType":"string"},{"name":"description","type":"string","internalType":"string"},{"name":"price","type":"uint256","internalType":"uint256"},{"name":"status","type":"uint8","internalType":"enum SupplyChainManagement.ProductStatus"},{"name":"createdAt","type":"uint256","internalType":"uint256"},{"name":"sentByManufacturerAt","type":"uint256","internalType":"uint256"},{"name":"receivedByDistributorAt","type":"uint256","internalType":"uint256"},{"name":"sentByDistributorAt","type":"uint256","internalType":"uint256"},{"name":"receivedByRetailerAt","type":"uint256","internalType":"uint256"}]}],"stateMutability":"view"},{"type":"function","name":"getProductsSentByDistributor","inputs":[],"outputs":[{"name":"","type":"tuple[]","internalType":"struct SupplyChainManagement.Product[]","components":[{"name":"id","type":"uint256","internalType":"uint256"},{"name":"name","type":"string","internalType":"string"},{"name":"description","type":"string","internalType":"string"},{"name":"price","type":"uint256","internalType":"uint256"},{"name":"status","type":"uint8","internalType":"enum SupplyChainManagement.ProductStatus"},{"name":"createdAt","type":"uint256","internalType":"uint256"},{"name":"sentByManufacturerAt","type":"uint256","internalType":"uint256"},{"name":"receivedByDistributorAt","type":"uint256","internalType":"uint256"},{"name":"sentByDistributorAt","type":"uint256","internalType":"uint256"},{"name":"receivedByRetailerAt","type":"uint256","internalType":"uint256"}]}],"stateMutability":"view"},{"type":"function","name":"getProductsSentByManufacturer","inputs":[],"outputs":[{"name":"","type":"tuple[]","internalType":"struct SupplyChainManagement.Product[]","components":[{"name":"id","type":"uint256","internalType":"uint256"},{"name":"name","type":"string","internalType":"string"},{"name":"description","type":"string","internalType":"string"},{"name":"price","type":"uint256","internalType":"uint256"},{"name":"status","type":"uint8","internalType":"enum SupplyChainManagement.ProductStatus"},{"name":"createdAt","type":"uint256","internalType":"uint256"},{"name":"sentByManufacturerAt","type":"uint256","internalType":"uint256"},{"name":"receivedByDistributorAt","type":"uint256","internalType":"uint256"},{"name":"sentByDistributorAt","type":"uint256","internalType":"uint256"},{"name":"receivedByRetailerAt","type":"uint256","internalType":"uint256"}]}],"stateMutability":"view"},{"type":"function","name":"getReturnRequestsForProduct","inputs":[{"name":"_productId","type":"uint256","internalType":"uint256"}],"outputs":[{"name":"","type":"tuple[]","internalType":"struct SupplyChainManagement.ReturnRequest[]","components":[{"name":"id","type":"uint256","internalType":"uint256"},{"name":"productId","type":"uint256","internalType":"uint256"},{"name":"requester","type":"address","internalType":"address"},{"name":"reason","type":"string","internalType":"string"},{"name":"approved","type":"bool","internalType":"bool"},{"name":"processed","type":"bool","internalType":"bool"},{"name":"timestamp","type":"uint256","internalType":"uint256"}]}],"stateMutability":"view"},{"type":"function","name":"getUserProducts","inputs":[{"name":"_user","type":"address","internalType":"address"}],"outputs":[{"name":"","type":"uint256[]","internalType":"uint256[]"}],"stateMutability":"view"},{"type":"function","name":"manufacturer","inputs":[],"outputs":[{"name":"","type":"address","internalType":"address"}],"stateMutability":"view"},{"type":"function","name":"owner","inputs":[],"outputs":[{"name":"","type":"address","internalType":"address"}],"stateMutability":"view"},{"type":"function","name":"processReturn","inputs":[{"name":"_returnRequestId","type":"uint256","internalType":"uint256"},{"name":"_approved","type":"bool","internalType":"bool"}],"outputs":[],"stateMutability":"nonpayable"},{"type":"function","name":"products","inputs":[{"name":"","type":"uint256","internalType":"uint256"}],"outputs":[{"name":"id","type":"uint256","internalType":"uint256"},{"name":"name","type":"string","internalType":"string"},{"name":"description","type":"string","internalType":"string"},{"name":"price","type":"uint256","internalType":"uint256"},{"name":"status","type":"uint8","internalType":"enum SupplyChainManagement.ProductStatus"},{"name":"createdAt","type":"uint256","internalType":"uint256"},{"name":"sentByManufacturerAt","type":"uint256","internalType":"uint256"},{"name":"receivedByDistributorAt","type":"uint256","internalType":"uint256"},{"name":"sentByDistributorAt","type":"uint256","internalType":"uint256"},{"name":"receivedByRetailerAt","type":"uint256","internalType":"uint256"}],"stateMutability":"view"},{"type":"function","name":"receiveProductByDistributor","inputs":[{"name":"_productId","type":"uint256","internalType":"uint256"}],"outputs":[],"stateMutability":"nonpayable"},{"type":"function","name":"receiveProductByRetailer","inputs":[{"name":"_productId","type":"uint256","internalType":"uint256"}],"outputs":[],"stateMutability":"nonpayable"},{"type":"function","name":"requestReturn","inputs":[{"name":"_productId","type":"uint256","internalType":"uint256"},{"name":"_reason","type":"string","internalType":"string"}],"outputs":[],"stateMutability":"nonpayable"},{"type":"function","name":"retailer","inputs":[],"outputs":[{"name":"","type":"address","internalType":"address"}],"stateMutability":"view"},{"type":"function","name":"sendProductByDistributor","inputs":[{"name":"_productId","type":"uint256","internalType":"uint256"}],"outputs":[],"stateMutability":"nonpayable"},{"type":"function","name":"sendProductByManufacturer","inputs":[{"name":"_productId","type":"uint256","internalType":"uint256"}],"outputs":[],"stateMutability":"nonpayable"},{"type":"function","name":"setAddresses","inputs":[{"name":"_manufacturer","type":"address","internalType":"address"},{"name":"_distributor","type":"address","internalType":"address"},{"name":"_retailer","type":"address","internalType":"address"}],"outputs":[],"stateMutability":"nonpayable"},{"type":"function","name":"transferOwnership","inputs":[{"name":"newOwner","type":"address","internalType":"address"}],"outputs":[],"stateMutability":"nonpayable"},{"type":"function","name":"updateProductDetails","inputs":[{"name":"_productId","type":"uint256","internalType":"uint256"},{"name":"_name","type":"string","internalType":"string"},{"name":"_description","type":"string","internalType":"string"},{"name":"_price","type":"uint256","internalType":"uint256"}],"outputs":[],"stateMutability":"nonpayable"},{"type":"event","name":"AddressesSet","inputs":[{"name":"manufacturer","type":"address","indexed":true,"internalType":"address"},{"name":"distributor","type":"address","indexed":true,"internalType":"address"},{"name":"retailer","type":"address","indexed":true,"internalType":"address"},{"name":"timestamp","type":"uint256","indexed":false,"internalType":"uint256"}],"anonymous":false},{"type":"event","name":"OwnershipTransferred","inputs":[{"name":"previousOwner","type":"address","indexed":true,"internalType":"address"},{"name":"newOwner","type":"address","indexed":true,"internalType":"address"}],"anonymous":false},{"type":"event","name":"ProductCreated","inputs":[{"name":"productId","type":"uint256","indexed":true,"internalType":"uint256"},{"name":"manufacturer","type":"address","indexed":true,"internalType":"address"},{"name":"timestamp","type":"uint256","indexed":false,"internalType":"uint256"}],"anonymous":false},{"type":"event","name":"ProductReceived","inputs":[{"name":"productId","type":"uint256","indexed":true,"internalType":"uint256"},{"name":"receiver","type":"address","indexed":true,"internalType":"address"},{"name":"timestamp","type":"uint256","indexed":false,"internalType":"uint256"}],"anonymous":false},{"type":"event","name":"ProductSent","inputs":[{"name":"productId","type":"uint256","indexed":true,"internalType":"uint256"},{"name":"from","type":"address","indexed":true,"internalType":"address"},{"name":"to","type":"address","indexed":true,"internalType":"address"},{"name":"timestamp","type":"uint256","indexed":false,"internalType":"uint256"}],"anonymous":false},{"type":"event","name":"ProductStageUpdated","inputs":[{"name":"productId","type":"uint256","indexed":true,"internalType":"uint256"},{"name":"currentStage","type":"uint8","indexed":false,"internalType":"enum SupplyChainManagement.ProductStatus"},{"name":"timestamp","type":"uint256","indexed":false,"internalType":"uint256"}],"anonymous":false},{"type":"event","name":"ProductStatusChanged","inputs":[{"name":"productId","type":"uint256","indexed":true,"internalType":"uint256"},{"name":"oldStatus","type":"uint8","indexed":false,"internalType":"enum SupplyChainManagement.ProductStatus"},{"name":"newStatus","type":"uint8","indexed":false,"internalType":"enum SupplyChainManagement.ProductStatus"},{"name":"timestamp","type":"uint256","indexed":false,"internalType":"uint256"}],"anonymous":false},{"type":"event","name":"ReturnProcessed","inputs":[{"name":"returnRequestId","type":"uint256","indexed":true,"internalType":"uint256"},{"name":"approved","type":"bool","indexed":false,"internalType":"bool"},{"name":"timestamp","type":"uint256","indexed":false,"internalType":"uint256"}],"anonymous":false},{"type":"event","name":"ReturnRequested","inputs":[{"name":"returnRequestId","type":"uint256","indexed":true,"internalType":"uint256"},{"name":"productId","type":"uint256","indexed":true,"internalType":"uint256"},{"name":"requester","type":"address","indexed":true,"internalType":"address"},{"name":"reason","type":"string","indexed":false,"internalType":"string"},{"name":"timestamp","type":"uint256","indexed":false,"internalType":"uint256"}],"anonymous":false},{"type":"event","name":"TransactionPerformed","inputs":[{"name":"productId","type":"uint256","indexed":true,"internalType":"uint256"},{"name":"transactionType","type":"string","indexed":false,"internalType":"string"},{"name":"performer","type":"address","indexed":true,"internalType":"address"},{"name":"timestamp","type":"uint256","indexed":false,"internalType":"uint256"}],"anonymous":false}],"bytecode":{"object":"0x6080604052348015600f57600080fd5b50600080546001600160a01b031916331781556004556138c1806100346000396000f3fe608060405234801561001057600080fd5b50600436106101cf5760003560e01c80638da5cb5b11610104578063b3ebc846116100a2578063cd8e144111610071578063cd8e1441146103ec578063f2fde38b146103f4578063f651824714610407578063fee7f53b1461041a57600080fd5b8063b3ebc846146103a9578063b9db15b4146103b1578063bfe10928146103d1578063c0b313e1146103e457600080fd5b80639ab2dfa3116100de5780639ab2dfa314610350578063a142220914610370578063aedd037614610383578063b0ed2e6a1461039657600080fd5b80638da5cb5b1461032d5780638f46e7411461034057806390346fa31461034857600080fd5b80635fc25e7f11610171578063716cd2081161014b578063716cd208146102c957806374754282146102de5780637acc0b20146102f1578063819be25c1461031a57600080fd5b80635fc25e7f14610283578063680d0b251461029657806368d2e183146102b657600080fd5b80634a348da9116101ad5780634a348da91461020f5780634c1249fc1461022557806355af148f1461025057806357a096a11461027057600080fd5b80632f418f20146101d457806333e3cde9146101e9578063363bf964146101fc575b600080fd5b6101e76101e2366004612e94565b61042d565b005b6101e76101f7366004612e94565b61064f565b6101e761020a366004612ec9565b61081c565b6004546040519081526020015b60405180910390f35b600354610238906001600160a01b031681565b6040516001600160a01b03909116815260200161021c565b61026361025e366004612f0c565b610930565b60405161021c9190612f2e565b61026361027e366004612e94565b610a4e565b6101e7610291366004612e94565b610d28565b6102a96102a4366004612e94565b610f12565b60405161021c9190612fb7565b6101e76102c4366004613114565b611126565b6102d161143c565b60405161021c919061322c565b600154610238906001600160a01b031681565b6103046102ff366004612e94565b6117ea565b60405161021c9a99989796959493929190613285565b6101e7610328366004612e94565b61194d565b600054610238906001600160a01b031681565b6102d1611b6a565b6102d1611b7b565b61036361035e366004612e94565b611b87565b60405161021c91906132f6565b6101e761037e366004613383565b611cb8565b6102636103913660046133f4565b611fd4565b6101e76103a436600461341c565b612061565b6102d1612207565b6103c46103bf366004612e94565b612213565b60405161021c9190613451565b600254610238906001600160a01b031681565b6102a961240d565b6102d161262a565b6101e7610402366004613464565b612636565b6101e761041536600461347f565b612711565b610263610428366004613464565b612894565b6002546001600160a01b031633146104605760405162461bcd60e51b8152600401610457906134f7565b60405180910390fd5b8060008111801561047357506004548111155b61048f5760405162461bcd60e51b81526004016104579061353e565b60008281526006602052604090206002600482015460ff1660058111156104b8576104b861315a565b146104d55760405162461bcd60e51b81526004016104579061356a565b60048101805460ff19811660031790915542600883015560ff166104f984826128fe565b6105048460036129ea565b610539846040518060400160405280601381526020017229b2b73a10313c902234b9ba3934b13aba37b960691b815250612a3a565b6003546040514281526001600160a01b0390911690339086907fe00db629464f6cf3dd882b093aa04e12f229901540817d714206c0749277b0c79060200160405180910390a46004820154604051859160008051602061386c833981519152916105ac91859160ff9091169042906135ad565b60405180910390a2604080518181526013918101919091527229b2b73a10313c902234b9ba3934b13aba37b960691b60608201524260208201523390859060008051602061384c833981519152906080015b60405180910390a3600482015460405185917f3d8bc1c5810cc03ca828bc428824690ee85c4ee20effb99ec20ca8f5bf030e3e916106419160ff169042906135d6565b60405180910390a250505050565b6001546001600160a01b031633146106795760405162461bcd60e51b8152600401610457906135f1565b8060008111801561068c57506004548111155b6106a85760405162461bcd60e51b81526004016104579061353e565b600082815260066020526040812090600482015460ff1660058111156106d0576106d061315a565b146106ed5760405162461bcd60e51b81526004016104579061356a565b60048101805460ff19811660011790915542600683015560ff1661071184826128fe565b61071c8460016129ea565b610752846040518060400160405280601481526020017329b2b73a10313c9026b0b73ab330b1ba3ab932b960611b815250612a3a565b6002546040514281526001600160a01b0390911690339086907fe00db629464f6cf3dd882b093aa04e12f229901540817d714206c0749277b0c79060200160405180910390a46004820154604051859160008051602061386c833981519152916107c591859160ff9091169042906135ad565b60405180910390a2604080518181526014918101919091527329b2b73a10313c9026b0b73ab330b1ba3ab932b960611b60608201524260208201523390859060008051602061384c833981519152906080016105fe565b6000546001600160a01b031633146108465760405162461bcd60e51b815260040161045790613639565b6001600160a01b0383161580159061086657506001600160a01b03821615155b801561087a57506001600160a01b03811615155b6108b85760405162461bcd60e51b815260206004820152600f60248201526e496e76616c6964206164647265737360881b6044820152606401610457565b600180546001600160a01b03199081166001600160a01b03868116918217909355600280548316868516908117909155600380549093169385169384179092556040514281527f832717fbce4c924a984bd98e320800b3356e713ddccfa39ce9eebe4214efabb09060200160405180910390a4505050565b6060818311156109775760405162461bcd60e51b8152602060048201526012602482015271496e76616c696420646174652072616e676560701b6044820152606401610457565b60006004546001600160401b0381111561099357610993613071565b6040519080825280602002602001820160405280156109bc578160200160208202803683370190505b509050600060015b6004548111610a425760008181526006602052604090206005015486118015906109ff57506000818152600660205260409020600501548510155b15610a305780838381518110610a1757610a1761367a565b602090810291909101015281610a2c816136a6565b9250505b80610a3a816136a6565b9150506109c4565b50815290505b92915050565b606081600081118015610a6357506004548111155b610a7f5760405162461bcd60e51b81526004016104579061353e565b6000600660008581526020019081526020016000206040518061014001604052908160008201548152602001600182018054610aba906136bf565b80601f0160208091040260200160405190810160405280929190818152602001828054610ae6906136bf565b8015610b335780601f10610b0857610100808354040283529160200191610b33565b820191906000526020600020905b815481529060010190602001808311610b1657829003601f168201915b50505050508152602001600282018054610b4c906136bf565b80601f0160208091040260200160405190810160405280929190818152602001828054610b78906136bf565b8015610bc55780601f10610b9a57610100808354040283529160200191610bc5565b820191906000526020600020905b815481529060010190602001808311610ba857829003601f168201915b505050918352505060038201546020820152600482015460409091019060ff166005811115610bf657610bf661315a565b6005811115610c0757610c0761315a565b815260058281015460208301526006830154604080840191909152600784015460608401526008840154608084015260099093015460a090920191909152815181815260c081019092529192506000918160200160208202803683370190505090508160a0015181600081518110610c8157610c8161367a565b6020026020010181815250508160c0015181600181518110610ca557610ca561367a565b6020026020010181815250508160e0015181600281518110610cc957610cc961367a565b60200260200101818152505081610100015181600381518110610cee57610cee61367a565b60200260200101818152505081610120015181600481518110610d1357610d1361367a565b60209081029190910101529250505b50919050565b6002546001600160a01b03163314610d525760405162461bcd60e51b8152600401610457906134f7565b80600081118015610d6557506004548111155b610d815760405162461bcd60e51b81526004016104579061353e565b60008281526006602052604090206001600482015460ff166005811115610daa57610daa61315a565b14610dc75760405162461bcd60e51b81526004016104579061356a565b60048101805460ff1981166002179091554260078084019190915533600090815260209182526040812080546001810182559082529190200184905560ff16610e1084826128fe565b610e1b8460026129ea565b610e5484604051806040016040528060178152602001762932b1b2b4bb32b210313c902234b9ba3934b13aba37b960491b815250612a3a565b604051428152339085907f15bbac4e671dd682bb8ba3a70a971537f9650428222e657dd6e706a9d3fcf0f29060200160405180910390a36004820154604051859160008051602061386c83398151915291610eb891859160ff9091169042906135ad565b60405180910390a260408051818152601791810191909152762932b1b2b4bb32b210313c902234b9ba3934b13aba37b960491b60608201524260208201523390859060008051602061384c833981519152906080016105fe565b6060600060015b6005548111610f5b576000818152600a6020526040902060010154849003610f495781610f45816136a6565b9250505b80610f53816136a6565b915050610f19565b506000816001600160401b03811115610f7657610f76613071565b604051908082528060200260200182016040528015610faf57816020015b610f9c612de6565b815260200190600190039081610f945790505b509050600060015b600554811161111c576000818152600a602052604090206001015486900361110a576000818152600a6020908152604091829020825160e0810184528154815260018201549281019290925260028101546001600160a01b031692820192909252600382018054919291606084019190611030906136bf565b80601f016020809104026020016040519081016040528092919081815260200182805461105c906136bf565b80156110a95780601f1061107e576101008083540402835291602001916110a9565b820191906000526020600020905b81548152906001019060200180831161108c57829003601f168201915b5050509183525050600482015460ff80821615156020840152610100909104161515604082015260059091015460609091015283518490849081106110f0576110f061367a565b60200260200101819052508180611106906136a6565b9250505b80611114816136a6565b915050610fb7565b5090949350505050565b600082815260066020526040812054900361117c5760405162461bcd60e51b8152602060048201526016602482015275141c9bd91d58dd08191bd95cc81b9bdd08195e1a5cdd60521b6044820152606401610457565b60008281526006602052604081206004015460ff1660058111156111a2576111a261315a565b14806111d35750600160008381526006602052604090206004015460ff1660058111156111d1576111d161315a565b145b806112035750600260008381526006602052604090206004015460ff1660058111156112015761120161315a565b145b806112335750600360008381526006602052604090206004015460ff1660058111156112315761123161315a565b145b806112635750600460008381526006602052604090206004015460ff1660058111156112615761126161315a565b145b6112c25760405162461bcd60e51b815260206004820152602a60248201527f50726f64756374206973206e6f7420696e20612076616c6964207374617465206044820152693337b9103932ba3ab93760b11b6064820152608401610457565b600580549060006112d2836136a6565b90915550506040805160e0810182526005548082526020808301868152338486019081526060850187815260006080870181905260a087018190524260c0880152948552600a90935294909220835181559151600183015592516002820180546001600160a01b0319166001600160a01b03909216919091179055915190919060038201906113619082613742565b5060808201516004808301805460a086015115156101000261ff00199415159490941661ffff19909116179290921790915560c0909201516005918201556000848152600660205260409020909101805460ff811692919060ff19166001830217905550336001600160a01b0316836005547feea95f956a510b48b2177b2cf419a8231f64470c4162510072133e1765652b218542604051611404929190613800565b60405180910390a48260008051602061386c8339815191528260054260405161142f939291906135ad565b60405180910390a2505050565b60046000908152600860209081527f9321edea6e3be4df59a344b401fab4f888b556fda1f954244cff9204bad624b88054604080518285028101850190915281815260609493909291908301828280156114b557602002820191906000526020600020905b8154815260200190600101908083116114a1575b505050505090506000805b825181101561152e576005600660008584815181106114e1576114e161367a565b60209081029190910181015182528101919091526040016000206004015460ff1660058111156115135761151361315a565b146115265781611522816136a6565b9250505b6001016114c0565b506000816001600160401b0381111561154957611549613071565b60405190808252806020026020018201604052801561158257816020015b61156f612e30565b8152602001906001900390816115675790505b5090506000805b845181101561111c576005600660008784815181106115aa576115aa61367a565b60209081029190910181015182528101919091526040016000206004015460ff1660058111156115dc576115dc61315a565b146117e257600660008683815181106115f7576115f761367a565b602002602001015181526020019081526020016000206040518061014001604052908160008201548152602001600182018054611633906136bf565b80601f016020809104026020016040519081016040528092919081815260200182805461165f906136bf565b80156116ac5780601f10611681576101008083540402835291602001916116ac565b820191906000526020600020905b81548152906001019060200180831161168f57829003601f168201915b505050505081526020016002820180546116c5906136bf565b80601f01602080910402602001604051908101604052809291908181526020018280546116f1906136bf565b801561173e5780601f106117135761010080835404028352916020019161173e565b820191906000526020600020905b81548152906001019060200180831161172157829003601f168201915b505050918352505060038201546020820152600482015460409091019060ff16600581111561176f5761176f61315a565b60058111156117805761178061315a565b8152602001600582015481526020016006820154815260200160078201548152602001600882015481526020016009820154815250508383815181106117c8576117c861367a565b602002602001018190525081806117de906136a6565b9250505b600101611589565b6006602052600090815260409020805460018201805491929161180c906136bf565b80601f0160208091040260200160405190810160405280929190818152602001828054611838906136bf565b80156118855780601f1061185a57610100808354040283529160200191611885565b820191906000526020600020905b81548152906001019060200180831161186857829003601f168201915b50505050509080600201805461189a906136bf565b80601f01602080910402602001604051908101604052809291908181526020018280546118c6906136bf565b80156119135780601f106118e857610100808354040283529160200191611913565b820191906000526020600020905b8154815290600101906020018083116118f657829003601f168201915b505050506003830154600484015460058501546006860154600787015460088801546009909801549697949660ff9094169550919390928a565b6003546001600160a01b031633146119b35760405162461bcd60e51b8152602060048201526024808201527f4f6e6c792072657461696c65722063616e2063616c6c20746869732066756e636044820152633a34b7b760e11b6064820152608401610457565b806000811180156119c657506004548111155b6119e25760405162461bcd60e51b81526004016104579061353e565b60008281526006602052604090206003600482015460ff166005811115611a0b57611a0b61315a565b14611a285760405162461bcd60e51b81526004016104579061356a565b6004818101805460ff19811690921790554260098301553360009081526007602090815260408220805460018101825590835291200184905560ff16611a6e84826128fe565b611a798460046129ea565b611aaf84604051806040016040528060148152602001732932b1b2b4bb32b210313c902932ba30b4b632b960611b815250612a3a565b604051428152339085907f15bbac4e671dd682bb8ba3a70a971537f9650428222e657dd6e706a9d3fcf0f29060200160405180910390a36004820154604051859160008051602061386c83398151915291611b1391859160ff9091169042906135ad565b60405180910390a260408051818152601491810191909152732932b1b2b4bb32b210313c902932ba30b4b632b960611b60608201524260208201523390859060008051602061384c833981519152906080016105fe565b6060611b766001612af7565b905090565b6060611b766002612af7565b606060096000838152602001908152602001600020805480602002602001604051908101604052809291908181526020016000905b82821015611cad578382906000526020600020906004020160405180608001604052908160008201548152602001600182018054611bf9906136bf565b80601f0160208091040260200160405190810160405280929190818152602001828054611c25906136bf565b8015611c725780601f10611c4757610100808354040283529160200191611c72565b820191906000526020600020905b815481529060010190602001808311611c5557829003601f168201915b505050918352505060028201546001600160a01b03166020808301919091526003909201546040909101529082526001929092019101611bbc565b505050509050919050565b6001546001600160a01b03163314611ce25760405162461bcd60e51b8152600401610457906135f1565b6000835111611d2a5760405162461bcd60e51b81526020600482015260146024820152734e616d652063616e6e6f7420626520656d70747960601b6044820152606401610457565b60008111611d7a5760405162461bcd60e51b815260206004820152601f60248201527f5072696365206d7573742062652067726561746572207468616e207a65726f006044820152606401610457565b60048054906000611d8a836136a6565b909155505060045460408051610140810182528281526020808201878152828401879052606083018690526000608084018190524260a085015260c0840181905260e08401819052610100840181905261012084018190528581526006909252929020815181559151909182916001820190611e069082613742565b5060408201516002820190611e1b9082613742565b5060608201516003820155608082015160048201805460ff19166001836005811115611e4957611e4961315a565b021790555060a0820151600582015560c0820151600682015560e08201516007808301919091556101008301516008830155610120909201516009909101553360009081526020918252604081208054600181018255908252918120909101839055611eb69083906129ea565b611ee7826040518060400160405280600f81526020016e141c9bd91d58dd0810dc99585d1959608a1b815250612a3a565b604051428152339083907f8c12a1cab846dfcbaa7bbfb31067eef6959a29d7729252d0489ba1b9f631abc49060200160405180910390a38160008051602061386c83398151915260008042604051611f41939291906135ad565b60405180910390a260408051818152600f818301526e141c9bd91d58dd0810dc99585d1959608a1b606082015242602082015290513391849160008051602061384c8339815191529181900360800190a3817f3d8bc1c5810cc03ca828bc428824690ee85c4ee20effb99ec20ca8f5bf030e3e600042604051611fc59291906135d6565b60405180910390a25050505050565b606060086000836005811115611fec57611fec61315a565b6005811115611ffd57611ffd61315a565b815260200190815260200160002080548060200260200160405190810160405280929190818152602001828054801561205557602002820191906000526020600020905b815481526020019060010190808311612041575b50505050509050919050565b6000546001600160a01b0316331461208b5760405162461bcd60e51b815260040161045790613639565b6000828152600a602052604090206004810154610100900460ff16156120f35760405162461bcd60e51b815260206004820152601860248201527f52657475726e20616c72656164792070726f63657373656400000000000000006044820152606401610457565b60048101805461ff0019841580159190911661ffff199092169190911761010017909155600182015460009081526006602052604090209061218e576004818101805460ff19169055600183015461214a916128fe565b612159826001015460006129ea565b816001015460008051602061386c8339815191526005600042604051612181939291906135ad565b60405180910390a26121ce565b6004818101805460ff1916821790556001830154604051909160008051602061386c833981519152916121c59160059142906135ad565b60405180910390a25b60408051841515815242602082015285917f1b31d9d969e2b5d3d09504cdd38fe8f56e54a57ab0d3aed235e24a3a2b9718799101610641565b6060611b766000612af7565b61221b612e30565b8160008111801561222e57506004548111155b61224a5760405162461bcd60e51b81526004016104579061353e565b600660008481526020019081526020016000206040518061014001604052908160008201548152602001600182018054612283906136bf565b80601f01602080910402602001604051908101604052809291908181526020018280546122af906136bf565b80156122fc5780601f106122d1576101008083540402835291602001916122fc565b820191906000526020600020905b8154815290600101906020018083116122df57829003601f168201915b50505050508152602001600282018054612315906136bf565b80601f0160208091040260200160405190810160405280929190818152602001828054612341906136bf565b801561238e5780601f106123635761010080835404028352916020019161238e565b820191906000526020600020905b81548152906001019060200180831161237157829003601f168201915b505050918352505060038201546020820152600482015460409091019060ff1660058111156123bf576123bf61315a565b60058111156123d0576123d061315a565b81526005820154602082015260068201546040820152600782015460608201526008820154608082015260099091015460a0909101529392505050565b6060600060015b600554811161245b576000818152600a6020526040902060040154610100900460ff166124495781612445816136a6565b9250505b80612453816136a6565b915050612414565b506000816001600160401b0381111561247657612476613071565b6040519080825280602002602001820160405280156124af57816020015b61249c612de6565b8152602001906001900390816124945790505b509050600060015b6005548111612621576000818152600a6020526040902060040154610100900460ff1661260f576000818152600a6020908152604091829020825160e0810184528154815260018201549281019290925260028101546001600160a01b031692820192909252600382018054919291606084019190612535906136bf565b80601f0160208091040260200160405190810160405280929190818152602001828054612561906136bf565b80156125ae5780601f10612583576101008083540402835291602001916125ae565b820191906000526020600020905b81548152906001019060200180831161259157829003601f168201915b5050509183525050600482015460ff80821615156020840152610100909104161515604082015260059091015460609091015283518490849081106125f5576125f561367a565b6020026020010181905250818061260b906136a6565b9250505b80612619816136a6565b9150506124b7565b50909392505050565b6060611b766003612af7565b6000546001600160a01b031633146126605760405162461bcd60e51b815260040161045790613639565b6001600160a01b0381166126b65760405162461bcd60e51b815260206004820152601d60248201527f4e6577206f776e657220697320746865207a65726f20616464726573730000006044820152606401610457565b600080546040516001600160a01b03808516939216917f8be0079c531659141344cd1fd0a4f28419497f9722a3daafe3b4186f6b6457e091a3600080546001600160a01b0319166001600160a01b0392909216919091179055565b6000546001600160a01b0316331461273b5760405162461bcd60e51b815260040161045790613639565b8360008111801561274e57506004548111155b61276a5760405162461bcd60e51b81526004016104579061353e565b60008451116127b25760405162461bcd60e51b81526020600482015260146024820152734e616d652063616e6e6f7420626520656d70747960601b6044820152606401610457565b600082116128025760405162461bcd60e51b815260206004820152601f60248201527f5072696365206d7573742062652067726561746572207468616e207a65726f006044820152606401610457565b60008581526006602052604090206001810161281e8682613742565b506002810161282d8582613742565b5060038101839055604080518181526017818301527f50726f647563742044657461696c732055706461746564000000000000000000606082015242602082015290513391889160008051602061384c8339815191529181900360800190a3505050505050565b6001600160a01b03811660009081526007602090815260409182902080548351818402810184019094528084526060939283018282801561205557602002820191906000526020600020908154815260200190600101908083116120415750505050509050919050565b6000600860008360058111156129165761291661315a565b60058111156129275761292761315a565b8152602001908152602001600020905060005b81548110156129e457838282815481106129565761295661367a565b9060005260206000200154036129dc578154829061297690600190613822565b815481106129865761298661367a565b90600052602060002001548282815481106129a3576129a361367a565b9060005260206000200181905550818054806129c1576129c1613835565b600190038181906000526020600020016000905590556129e4565b60010161293a565b50505050565b60086000826005811115612a0057612a0061315a565b6005811115612a1157612a1161315a565b815260208082019290925260400160009081208054600181018255908252919020019190915550565b6040805160808101825283815260208082018481523383850152426060840152600086815260098352938420805460018181018355918652929094208351600490930201918255519192839290820190612a949082613742565b506040828101516002830180546001600160a01b0319166001600160a01b03909216919091179055606090920151600390910155513390849060008051602061384c83398151915290612aea9086904290613800565b60405180910390a3505050565b6060600060086000846005811115612b1157612b1161315a565b6005811115612b2257612b2261315a565b8152602001908152602001600020805480602002602001604051908101604052809291908181526020018280548015612b7a57602002820191906000526020600020905b815481526020019060010190808311612b66575b50505050509050600081516001600160401b03811115612b9c57612b9c613071565b604051908082528060200260200182016040528015612bd557816020015b612bc2612e30565b815260200190600190039081612bba5790505b50905060005b8251811015612dde5760066000848381518110612bfa57612bfa61367a565b602002602001015181526020019081526020016000206040518061014001604052908160008201548152602001600182018054612c36906136bf565b80601f0160208091040260200160405190810160405280929190818152602001828054612c62906136bf565b8015612caf5780601f10612c8457610100808354040283529160200191612caf565b820191906000526020600020905b815481529060010190602001808311612c9257829003601f168201915b50505050508152602001600282018054612cc8906136bf565b80601f0160208091040260200160405190810160405280929190818152602001828054612cf4906136bf565b8015612d415780601f10612d1657610100808354040283529160200191612d41565b820191906000526020600020905b815481529060010190602001808311612d2457829003601f168201915b505050918352505060038201546020820152600482015460409091019060ff166005811115612d7257612d7261315a565b6005811115612d8357612d8361315a565b815260200160058201548152602001600682015481526020016007820154815260200160088201548152602001600982015481525050828281518110612dcb57612dcb61367a565b6020908102919091010152600101612bdb565b509392505050565b6040518060e00160405280600081526020016000815260200160006001600160a01b0316815260200160608152602001600015158152602001600015158152602001600081525090565b6040518061014001604052806000815260200160608152602001606081526020016000815260200160006005811115612e6b57612e6b61315a565b815260200160008152602001600081526020016000815260200160008152602001600081525090565b600060208284031215612ea657600080fd5b5035919050565b80356001600160a01b0381168114612ec457600080fd5b919050565b600080600060608486031215612ede57600080fd5b612ee784612ead565b9250612ef560208501612ead565b9150612f0360408501612ead565b90509250925092565b60008060408385031215612f1f57600080fd5b50508035926020909101359150565b602080825282518282018190526000918401906040840190835b81811015612f66578351835260209384019390920191600101612f48565b509095945050505050565b6000815180845260005b81811015612f9757602081850181015186830182015201612f7b565b506000602082860101526020601f19601f83011685010191505092915050565b6000602082016020835280845180835260408501915060408160051b86010192506020860160005b8281101561306557603f198786030184528151805186526020810151602087015260018060a01b036040820151166040870152606081015160e0606088015261302b60e0880182612f71565b60808381015115159089015260a08084015115159089015260c0928301519290970191909152506020938401939190910190600101612fdf565b50929695505050505050565b634e487b7160e01b600052604160045260246000fd5b600082601f83011261309857600080fd5b81356001600160401b038111156130b1576130b1613071565b604051601f8201601f19908116603f011681016001600160401b03811182821017156130df576130df613071565b6040528181528382016020018510156130f757600080fd5b816020850160208301376000918101602001919091529392505050565b6000806040838503121561312757600080fd5b8235915060208301356001600160401b0381111561314457600080fd5b61315085828601613087565b9150509250929050565b634e487b7160e01b600052602160045260246000fd5b6006811061318e57634e487b7160e01b600052602160045260246000fd5b9052565b805182526000602082015161014060208501526131b3610140850182612f71565b9050604083015184820360408601526131cc8282612f71565b9150506060830151606085015260808301516131eb6080860182613170565b5060a083015160a085015260c083015160c085015260e083015160e08501526101008301516101008501526101208301516101208501528091505092915050565b6000602082016020835280845180835260408501915060408160051b86010192506020860160005b8281101561306557603f19878603018452613270858351613192565b94506020938401939190910190600101613254565b8a8152610140602082015260006132a061014083018c612f71565b82810360408401526132b2818c612f71565b9150508860608301526132c86080830189613170565b60a082019690965260c081019490945260e08401929092526101008301526101209091015295945050505050565b6000602082016020835280845180835260408501915060408160051b86010192506020860160005b8281101561306557603f1987860301845281518051865260208101516080602088015261334e6080880182612f71565b6040838101516001600160a01b031690890152606092830151929097019190915250602093840193919091019060010161331e565b60008060006060848603121561339857600080fd5b83356001600160401b038111156133ae57600080fd5b6133ba86828701613087565b93505060208401356001600160401b038111156133d657600080fd5b6133e286828701613087565b93969395505050506040919091013590565b60006020828403121561340657600080fd5b81356006811061341557600080fd5b9392505050565b6000806040838503121561342f57600080fd5b823591506020830135801515811461344657600080fd5b809150509250929050565b6020815260006134156020830184613192565b60006020828403121561347657600080fd5b61341582612ead565b6000806000806080858703121561349557600080fd5b8435935060208501356001600160401b038111156134b257600080fd5b6134be87828801613087565b93505060408501356001600160401b038111156134da57600080fd5b6134e687828801613087565b949793965093946060013593505050565b60208082526027908201527f4f6e6c79206469737472696275746f722063616e2063616c6c207468697320666040820152663ab731ba34b7b760c91b606082015260800190565b602080825260129082015271125b9d985b1a59081c1c9bd91d58dd08125160721b604082015260600190565b60208082526023908201527f50726f64756374206973206e6f7420696e2074686520636f727265637420737460408201526261746560e81b606082015260800190565b606081016135bb8286613170565b6135c86020830185613170565b826040830152949350505050565b604081016135e48285613170565b8260208301529392505050565b60208082526028908201527f4f6e6c79206d616e7566616374757265722063616e2063616c6c207468697320604082015267333ab731ba34b7b760c11b606082015260800190565b60208082526021908201527f4f6e6c79206f776e65722063616e2063616c6c20746869732066756e6374696f6040820152603760f91b606082015260800190565b634e487b7160e01b600052603260045260246000fd5b634e487b7160e01b600052601160045260246000fd5b6000600182016136b8576136b8613690565b5060010190565b600181811c908216806136d357607f821691505b602082108103610d2257634e487b7160e01b600052602260045260246000fd5b601f82111561373d57806000526020600020601f840160051c8101602085101561371a5750805b601f840160051c820191505b8181101561373a5760008155600101613726565b50505b505050565b81516001600160401b0381111561375b5761375b613071565b61376f8161376984546136bf565b846136f3565b6020601f8211600181146137a3576000831561378b5750848201515b600019600385901b1c1916600184901b17845561373a565b600084815260208120601f198516915b828110156137d357878501518255602094850194600190920191016137b3565b50848210156137f15786840151600019600387901b60f8161c191681555b50505050600190811b01905550565b6040815260006138136040830185612f71565b90508260208301529392505050565b81810381811115610a4857610a48613690565b634e487b7160e01b600052603160045260246000fdfe8d751b3cf7591bcfcae82f8951f186973d2559106e0f6d08e19dcde10c46f70ac77ff247e81f0dc4eb662088d49c8eb5c3156b5214a2116c9d6bfffe0c9ce878a26469706673582212203b2f7e1ccc618d9c38c5154977347bedcd3c67604d144d691ba48c1d45c9953464736f6c634300081a0033","linkReferences":{}},"methodIdentifiers":{"createProduct(string,string,uint256)":"a1422209","distributor()":"bfe10928","getPendingReturnRequests()":"c0b313e1","getProduct(uint256)":"b9db15b4","getProductCount()":"4a348da9","getProductHistory(uint256)":"57a096a1","getProductTransactions(uint256)":"9ab2dfa3","getProductsByDateRange(uint256,uint256)":"55af148f","getProductsByStatus(uint8)":"aedd0376","getProductsCreated()":"b3ebc846","getProductsReceivedByDistributor()":"90346fa3","getProductsReceivedByRetailer()":"716cd208","getProductsSentByDistributor()":"cd8e1441","getProductsSentByManufacturer()":"8f46e741","getReturnRequestsForProduct(uint256)":"680d0b25","getUserProducts(address)":"fee7f53b","manufacturer()":"74754282","owner()":"8da5cb5b","processReturn(uint256,bool)":"b0ed2e6a","products(uint256)":"7acc0b20","receiveProductByDistributor(uint256)":"5fc25e7f","receiveProductByRetailer(uint256)":"819be25c","requestReturn(uint256,string)":"68d2e183","retailer()":"4c1249fc","sendProductByDistributor(uint256)":"2f418f20","sendProductByManufacturer(uint256)":"33e3cde9","setAddresses(address,address,address)":"363bf964","transferOwnership(address)":"f2fde38b","updateProductDetails(uint256,string,string,uint256)":"f6518247"},"id":20}